:030000000208658E
:0C086500787FE4F6D8FD75815F0208ACD6
:10097000C4EA202000D4C200C8D500D0C72020C6B9
:10098000DA2020D2BB00D0C72020C6DA2020B6FE55
:1009900000D0C72020C6DA2020A2F300D0C7202034
:1009A000C6DA2020CBC400D0C72020C6DA2020CE53
:1009B000E500D0C72020C6DA2020C1F900D0C7202A
:1009C00020C6DA2020C8D500BAC72020BAC7202008
:1009D000DFD500543A002020202052483A00B8D0F9
:0D09E000BEF5D7D4BCBAC3C8C3C8DFD5006C
:100B50000A3C3F065B4F666D7D077F6F0A46BF8686
:100B6000DBCFE6EDFD87FFEF0732007FBFDFEFF75A
:100B7000FB012700015700015A00015E0101250118
:100B8000022207E0C100C101C102015000015C0066
:030B9000012A0037
:100AC100E52A14602614602914602C146032240471
:100AD100703712069F1208F1120C72120DC9E52C23
:100AE100C394014024E4F52C0203D712049A020CAA
:100AF1001212001E020A5C1208F11202F60207D657
:0A0B0100E4F52412018B1209ED2225
:100D88002097157F0A120DD820970D052AE52AB459
:090D98000503E4F52A3097FD2261
:100C1200E52A6401702B20960D7F0A120DD82096CA
:100C220005B28E3096FD2095187F0A120DD82095B8
:100C320010C28EE4F551F552F553F554F555309541
:020C4200FD2291
:100A5C00E52A6402705E2096247F0A120DD8209637
:100A6C001C20010C0557E557B43C0FE4F557800AE0
:100A7C000527E527B41803E4F5273096FD209524C7
:100A8C007F0A120DD820951C20010C1557E557B480
:100A9C00FF0F75573B800A1527E527B4FF03752711
:100AAC00173095FD20940D7F0A120DD8209405B2B5
:050ABC00013094FD2251
:1002F600E52A640360030203D62096657F0A120D81
:10030600D820965DE55C14602114603E2402704E90
:100316000523E5237002052264347004E52264088F
:10032600703C7522077523E08034055EE55EB40DEA
:1003360003755E01120B0BD3EF6480F8E52564802C
:1003460098401B120B0B8F2580140525120B0BD31F
:10035600EF6480F8E52564809840037525013096A2
:10036600FD2095527F0A120DD820954AE55C14604F
:10037600231460372402703BE523152370021522EF
:10038600E52364DF7004E52264077027752208758B
:100396002333801FD55E03755E0C120B0BD3EF64FF
:1003A60080F8E525648098400A8003D52505120B60
:1003B6000B8F253095FD2094177F0A120DD82094B7
:1003C6000F055CE55CD394024003E4F55C3094FDD4
:0103D6002204
:1009ED00E52A640470682096287F0A120DD8209697
:1009FD002020010ED202053BE53BB43C11E4F53B52
:100A0D00800CD2020521E521B41803E4F5213096BE
:100A1D00FD2095287F0A120DD820952020010ED299
:100A2D0002153BE53BB4FF11753B3B800CD2021523
:100A3D0021E521B4FF037521173095FD20940F7F1B
:0F0A4D000A120DD8209407B201D2023094FD2274
:0F0DC90020940B7F0A120DD8209403E4F5242206
:100C720030021FE521B5271AE53BB55715C3E55AE2
:100C820064809480400CD3E55A6480948350037549
:0D0C92002401E524B40103C29222D2922273
:10069F00E55A75F00A1205FD743C120CA9AF381219
:1006AF000D527F01120DD87FFF120D52E55A75F0D2
:1006BF000A1205FD243CF8E6FF120CAFAF37120DFE
:1006CF00527F01120DD87FFF120D52120C9FAF36C1
:1006DF00120D527F01120DD87FFF120D52E5577583
:1006EF00F00A1205FD243CF8E6FF120CAFAF3512ED
:1006FF000D527F01120DD87FFF120D52E527120CFC
:10070F00A1AF34120D527F01120DD87FFF120D527F
:10071F00E52775F00A1205FD243CF8E6FF120CAF31
:0F072F00AF33120D527F01120DD87FFF020D5212
:10049A00E55275F00A84743C25F0F8E6FF120CAFB9
:1004AA00AF38120D527F02120DD87FFF120D52E59E
:1004BA005375F00A84744625F0F8E6FF120CAFAFC4
:1004CA0037120D527F02120DD87FFF120D52E553DB
:1004DA0075F00A84243CF8E6FF120CAFAF36120D11
:1004EA00527F02120DD87FFF120D52E55475F00AA1
:1004FA0084744625F0F8E6FF120CAFAF35120D52A0
:10050A007F02120DD87FFF120D52E55475F00A844E
:10051A00243CF8E6FF120CAFAF34120D527F0212E0
:10052A000DD87FFF120D52E55575F00A84743C25EB
:10053A00F0F8E6FF120CAFAF33120D527F02120D24
:06054A00D87FFF020D52F4
:10001E003001030200CFE55A75F00A1205FDAFF06C
:10002E00743C120CABAF38120D527F02120DD87FFA
:10003E00FF120D52E55A75F00A1205FD243CF8E642
:10004E00FF120CAFAF37120D527F02120DD87FFF89
:10005E00120D52300020120C9FAF36120D527F023D
:10006E00120DD87FFF120D52E55775F00A1205FDDD
:10007E00243CF8E68015E4FF120CAFAF36120D5299
:10008E007F02120DD87FFF120D52E4FF120CAFAF9C
:10009E0035120D527F02120DD87FFF120D52E52739
:1000AE00120CA1AF34120D527F02120DD87FFF1227
:1000BE000D52E52775F00A1205FD243CF8E6020103
:1000CE0077E55A75F00A1205FDAFF0743C120CABD1
:1000DE00AF38120D527F02120DD87FFF120D52E56E
:1000EE005A75F00A1205FD243CF8E6FF120CAFAF6C
:1000FE0037120D527F02120DD87FFF120D52120CC5
:10010E009FAF36120D527F02120DD87FFF120D5285
:10011E00E55775F00A1205FD243CF8E6FF120CAF08
:10012E00AF35120D527F02120DD87FFF120D5230D5
:10013E000022E527120CA1AF34120D527F02120DD0
:10014E00D87FFF120D52E52775F00A1205FD243CEB
:10015E00F8E68015E4FF120CAFAF34120D527F0299
:10016E00120DD87FFF120D52E4FF120CAFAF3312F7
:0D017E000D527F02120DD87FFF120D52228C
:10018B0030010302023BAF3C120CAFAF38120D52E1
:10019B007F02120DD87FFF120D52AF3C120CAFAF86
:1001AB0037120D527F02120DD87FFF120D52300005
:1001BB002BE53B75F00A84744625F0F8E6FF120C2C
:1001CB00AFAF36120D527F02120DD87FFF120D52B8
:1001DB00E53B75F00A84243CF8E68015E4FF120C2D
:1001EB00AFAF36120D527F02120DD87FFF120D5298
:1001FB00E4FF120CAFAF35120D527F02120DD87FF8
:10020B00FF120D52E52175F00A84744625F0F8E6CD
:10021B00FF120CAFAF34120D527F02120DD87FFFBD
:10022B00120D52E52175F00A84243CF8E60202E235
:10023B00AF3C120CAFAF38120D527F02120DD87FAC
:10024B00FF120D52AF3C120CAFAF37120D527F02A3
:10025B00120DD87FFF120D52E53B75F00A847446E0
:10026B0025F0F8E6FF120CAFAF36120D527F0212DB
:10027B000DD87FFF120D52E53B75F00A84243CF834
:10028B00E6FF120CAFAF35120D527F02120DD87F65
:10029B00FF120D5230002BE52175F00A84744625B0
:1002AB00F0F8E6FF120CAFAF34120D527F02120DB5
:1002BB00D87FFF120D52E52175F00A84243CF8E635
:1002CB008015E4FF120CAFAF34120D527F02120DEA
:1002DB00D87FFF120D52E4FF120CAFAF33120D5249
:0B02EB007F02120DD87FFF120D52227F
:1008F1007D017F01120C487F32120DAD7F30120D48
:10090100ADAE22AF237C007D6412064A7E007F0AD1
:10091100CFCDCFCECCCE12064A120DA9AE22AF2337
:100921007C007D0A12064AED2430FF120DAD7BFFDB
:100931007A097970120DB6E55E75F00A1205FD248B
:1009410030FF120DADE55E120DA17BFF7A097975BD
:10095100120DB6E52575F00A1205FD2430FF120DC2
:0F096100ADE525120DA17BFF7A097978020DB65D
:06073E00AA058F828E83E4
:10074400BA02047D0180027D00BA01047C018002AA
:100754007C00EC4D600C740C2AFAE5821582700260
:100764001583EA2401FFE433FE7C007D031206387E
:100774007D0512064AAC06AD07EA75F002A47A00BC
:100784002BFFEA35F0CF2DCF3CCF2582FDEF35830B
:10079400FCE582AE837802CEC313CE13D8F92DFBC9
:1007A400EC3EFA7C007D64AF82AE8312064AC3EB52
:1007B4009FFBEA9EFAAE83AF827C017D9012064ACB
:1007C400EF2BFFEE3AFE7C007D0712064AED240172
:0107D400FF25
:0107D5002201
:1007D600AB25AD5EAF23AE2212073EEF14B4070081
:1007E60050709007F675F003A4C58325F0C5837392
:1007F60002080B02081602082102082C020837021A
:10080600084202084D120C447BFF7A09797B804B23
:10081600120C447BFF7A0979868040120C447BFFD8
:100826007A0979918035120C447BFF7A09799C808C
:100836002A120C447BFF7A0979A7801F120C447B8D
:10084600FF7A0979B28014120C447BFF7A0979BDCC
:0F0856008009120C447BFF7A0979C8120DB62273
:0E0DD800EFD3940040077E6EDEFE1F80F30016
:010DE60022EA
:100C9F00E55775F00A1205FD7446AFF02FF8E6FF21
:100CAF00C284E4FEC283EFA806088002C333D8FCD7
:0B0CBF00339285D2830EBE08EBD28476
:010CCA002207
:100D5200C281E4FEC280EFA806088002C333D8FC39
:0B0D6200339282D2800EBE08EBD281DB
:010D6D002263
:100D6E00D2AF758911758C4C758AD0D2A9D28C757B
:0A0D7E008D4C758BD0D2ABC28E22D3
:03000B000205509B
:10055000C0E0C0F0C083C082C0D075D000C000C071
:1005600001C002C003C004C005C006C007758C4CA2
:10057000758AD00550E55075F00A84E5F07002B236
:1005800000E5506414705BF550055A052CE55A647B
:100590003C704FF55A0557E557643C7045F55705D3
:1005A00027E5276418703BF5270525120B0BD3EFC1
:1005B0006480F8E5256480984028752501055ED3A0
:1005C000E55E6480948C401A755E010523E5237016
:1005D000020522D39434E52294084006752207755B
:1005E00023E0D007D006D005D004D003D002D0013C
:0D05F000D000D0D0D082D083D0F0D0E03247
:03001B00020B9441
:100B9400C0E0C0D0758D4C758BD00551E551640211
:100BA400702AF5510552E552B40A217552000553D5
:100BB400E553B43C177553000554E554B43C0D7526
:100BC40054000555E555B40A03755500D0D0D0E05E
:010BD40032EE
:100B0B00E55E24FC603924FE603524FD603124FE53
:100B1B00602D2409702CE5235403700EAE22AF23F5
:100B2B00FC7D6412064AED4C700FAE22AF237C01A4
:100B3B007D9012064AED4C70037F1D227F1C227F95
:050B4B001E227F1F22A5
:0F0CF300120D02ED54F0FF120D02EDC454F0FF8C
:100D0200E4FEC2A000EF3392A1D2A0EF25E0FF0ED5
:030D1200BE08EF29
:010D150022BB
:0C000E00AD077FF8120CF37F0A020DD83A
:0C0DA10075F00A1205FDAFF0EF2430FFE2
:090DAD00AD077FFA120CF30022DD
:100D16007F3012000E7F0C12000E7F0112000E7F34
:0E0D260005120DD87F0212000E7F0602000E8D
:100DB60012061FFF600C120DAD740129F9E43AFA10
:030DC60080EE229A
:040C44007D027F02AC
:100C4800EF24FE601014601314601624037016ED70
:100C5800247FFC8010ED248FFC800AED2487FC8023
:0A0C680004ED2497FCAF0402000E17
:100CCB008B088A09890A120C48AB08AA09A90A12CF
:100CDB00061F6013050AE50A7002050914F91206CE
:080CEB001FFF120DAD80E22293
:060DE700120DED120DEDEE
:040DED007F02DFFEA4
:010DF10022DF
:100BD500E4FE755B02209307AF5B055BEF70F612D1
:100BE5000DE7E4F528309303752801755B02309312
:100BF50007AF5B055BEF70F6E55B6401600EE53101
:0C0C050025E0F531E52842310EBE08C69E
:010C110022C0
:1003D700C2937F22120DD8D293120DE7120DEDD2E0
:1003E70093209378755B02209307AF5B055BEF70F3
:1003F700F6755B02309307AF5B055BEF70F6120B88
:10040700D585312E120BD5853130120BD585315854
:10041700120BD5853159120BD5853126D293E55864
:100427002559252E2530F528B5260F852E29853007
:100437002B85583985593A85265DE52975F00A8453
:10044700F55FE52975F00A8485F02DE53975F00A21
:1004570084F52FE53975F00A8485F0567D017F0311
:10046700120C487BFF7A0979D3120DB6E52F243099
:10047700FF120DADE5562430FF120DAD7A0979D67E
:10048700120DB6E55F2430FF120DADE52D2430FFC8
:03049700020DADA6
:100D3400120D16120D6E7BFF7A0979DE7D017F0498
:0E0D4400120CCB1207D6120D88120AC180F8CD
:10087100020D34E493A3F8E493A34003F68001F25C
:1008810008DFF48029E493A3F85407240CC8C33388
:10089100C4540F4420C8834004F456800146F6DF57
:1008A100E4800B0102040810204080900B50E47E8C
:1008B100019360BCA3FF543F30E509541FFEE4934C
:1008C100A360010ECF54C025E060A840B8E493A313
:1008D100FAE493A3F8E493A3C8C582C8CAC583CA3E
:1008E100F0A3C8C582C8CAC583CADFE9DEE780BEF6
:010B93000061
:1005FD00C2D530F707B2D563F0FF05F030E70CB286
:10060D00D5F4048463F0FF05F080018430D502F445
:02061D000422B5
:10061F00BB010689828A83E0225002E722BBFE02D9
:09062F00E32289828A83E493220C
:10063800EF8DF0A4A8F0CF8CF0A428CE8DF0A42ED6
:02064800FE2290
:10064A00BC000BBE0029EF8DF084FFADF022E4CC94
:10065A00F875F008EF2FFFEE33FEEC33FCEE9DEC5D
:10066A00984005FCEE9DFE0FD5F0E9E4CEFD22EDA3
:10067A00F8F5F0EE8420D21CFEADF075F008EF2FED
:10068A00FFED33FD4007985006D5F0F222C398FDDE
:05069A000FD5F0EA227B
:00000001FF
